{
  "_format": "hh-sol-artifact-1",
  "contractName": "DrugSupplyChain",
  "sourceName": "contracts/DrugSupplyChain.sol",
  "abi": [
    {
      "inputs": [],
      "stateMutability": "nonpayable",
      "type": "constructor"
    },
    {
      "anonymous": false,
      "inputs": [
        {
          "indexed": false,
          "internalType": "uint256",
          "name": "id",
          "type": "uint256"
        },
        {
          "indexed": false,
          "internalType": "string",
          "name": "name",
          "type": "string"
        },
        {
          "indexed": false,
          "internalType": "uint256",
          "name": "quantity",
          "type": "uint256"
        },
        {
          "indexed": false,
          "internalType": "uint256",
          "name": "price",
          "type": "uint256"
        },
        {
          "indexed": false,
          "internalType": "address",
          "name": "supplier",
          "type": "address"
        }
      ],
      "name": "DrugAdded",
      "type": "event"
    },
    {
      "anonymous": false,
      "inputs": [
        {
          "indexed": false,
          "internalType": "uint256",
          "name": "id",
          "type": "uint256"
        },
        {
          "indexed": false,
          "internalType": "string",
          "name": "name",
          "type": "string"
        },
        {
          "indexed": false,
          "internalType": "uint256",
          "name": "quantity",
          "type": "uint256"
        },
        {
          "indexed": false,
          "internalType": "uint256",
          "name": "price",
          "type": "uint256"
        },
        {
          "indexed": false,
          "internalType": "address",
          "name": "buyer",
          "type": "address"
        }
      ],
      "name": "DrugPurchased",
      "type": "event"
    },
    {
      "inputs": [
        {
          "internalType": "string",
          "name": "_name",
          "type": "string"
        },
        {
          "internalType": "uint256",
          "name": "_quantity",
          "type": "uint256"
        },
        {
          "internalType": "uint256",
          "name": "_price",
          "type": "uint256"
        }
      ],
      "name": "addDrug",
      "outputs": [],
      "stateMutability": "nonpayable",
      "type": "function"
    },
    {
      "inputs": [],
      "name": "balance",
      "outputs": [
        {
          "internalType": "uint256",
          "name": "",
          "type": "uint256"
        }
      ],
      "stateMutability": "view",
      "type": "function"
    },
    {
      "inputs": [],
      "name": "drugCount",
      "outputs": [
        {
          "internalType": "uint256",
          "name": "",
          "type": "uint256"
        }
      ],
      "stateMutability": "view",
      "type": "function"
    },
    {
      "inputs": [
        {
          "internalType": "uint256",
          "name": "",
          "type": "uint256"
        }
      ],
      "name": "drugs",
      "outputs": [
        {
          "internalType": "uint256",
          "name": "id",
          "type": "uint256"
        },
        {
          "internalType": "string",
          "name": "name",
          "type": "string"
        },
        {
          "internalType": "uint256",
          "name": "quantity",
          "type": "uint256"
        },
        {
          "internalType": "uint256",
          "name": "price",
          "type": "uint256"
        },
        {
          "internalType": "address",
          "name": "supplier",
          "type": "address"
        },
        {
          "internalType": "bool",
          "name": "isSold",
          "type": "bool"
        }
      ],
      "stateMutability": "view",
      "type": "function"
    },
    {
      "inputs": [],
      "name": "getBalance",
      "outputs": [
        {
          "internalType": "uint256",
          "name": "",
          "type": "uint256"
        }
      ],
      "stateMutability": "view",
      "type": "function"
    },
    {
      "inputs": [],
      "name": "owner",
      "outputs": [
        {
          "internalType": "address",
          "name": "",
          "type": "address"
        }
      ],
      "stateMutability": "view",
      "type": "function"
    },
    {
      "inputs": [
        {
          "internalType": "uint256",
          "name": "_id",
          "type": "uint256"
        }
      ],
      "name": "purchaseDrug",
      "outputs": [],
      "stateMutability": "payable",
      "type": "function"
    }
  ],
  "bytecode": "0x60806040526103e860015534801561001657600080fd5b50336000806101000a81548173ffffffffffffffffffffffffffffffffffffffff021916908373ffffffffffffffffffffffffffffffffffffffff160217905550611163806100666000396000f3fe6080604052600436106100705760003560e01c806383be91e51161004e57806383be91e5146100f45780638da5cb5b14610110578063b69ef8a81461013b578063fca5e61e1461016657610070565b806312065fe0146100755780634745f040146100a05780637577ca37146100c9575b600080fd5b34801561008157600080fd5b5061008a6101a8565b60405161009791906106cb565b60405180910390f35b3480156100ac57600080fd5b506100c760048036038101906100c2919061086c565b6101b0565b005b3480156100d557600080fd5b506100de610397565b6040516100eb91906106cb565b60405180910390f35b61010e600480360381019061010991906108db565b61039d565b005b34801561011c57600080fd5b50610125610597565b6040516101329190610949565b60405180910390f35b34801561014757600080fd5b506101506105bb565b60405161015d91906106cb565b60405180910390f35b34801561017257600080fd5b5061018d600480360381019061018891906108db565b6105c1565b60405161019f969594939291906109fe565b60405180910390f35b600047905090565b60008054906101000a900473ffffffffffffffffffffffffffffffffffffffff1673ffffffffffffffffffffffffffffffffffffffff163373ffffffffffffffffffffffffffffffffffffffff161461023e576040517f08c379a000000000000000000000000000000000000000000000000000000000815260040161023590610ad8565b60405180910390fd5b6003600081548092919061025190610b27565b91905055506040518060c0016040528060035481526020018481526020018381526020018281526020013373ffffffffffffffffffffffffffffffffffffffff168152602001600015158152506002600060035481526020019081526020016000206000820151816000015560208201518160010190816102d29190610d7b565b50604082015181600201556060820151816003015560808201518160040160006101000a81548173ffffffffffffffffffffffffffffffffffffffff021916908373ffffffffffffffffffffffffffffffffffffffff16021790555060a08201518160040160146101000a81548160ff0219169083151502179055509050507fdab68bcf36d669339e88038655bc20d5719efcb16665403cc2d2c36f19b2c1a66003548484843360405161038a959493929190610e4d565b60405180910390a1505050565b60035481565b6000600260008381526020019081526020016000209050600081600001541180156103ce5750600354816000015411155b61040d576040517f08c379a000000000000000000000000000000000000000000000000000000000815260040161040490610ef3565b60405180910390fd5b8060040160149054906101000a900460ff161561045f576040517f08c379a000000000000000000000000000000000000000000000000000000000815260040161045690610f5f565b60405180910390fd5b80600301543410156104a6576040517f08c379a000000000000000000000000000000000000000000000000000000000815260040161049d90610fcb565b60405180910390fd5b60018160040160146101000a81548160ff0219169083151502179055508060020160008154809291906104d890610feb565b91905055508060040160009054906101000a900473ffffffffffffffffffffffffffffffffffffffff1673ffffffffffffffffffffffffffffffffffffffff166108fc349081150290604051600060405180830381858888f19350505050158015610547573d6000803e3d6000fd5b507f4962b3a09f44f4e44ef58c0a70e0598e56e219dd7314f879414857d1f38a9bf9816000015482600101600184600301543360405161058b9594939291906110d3565b60405180910390a15050565b60008054906101000a900473ffffffffffffffffffffffffffffffffffffffff1681565b60015481565b60026020528060005260406000206000915090508060000154908060010180546105ea90610b9e565b80601f016020809104026020016040519081016040528092919081815260200182805461061690610b9e565b80156106635780601f1061063857610100808354040283529160200191610663565b820191906000526020600020905b81548152906001019060200180831161064657829003601f168201915b5050505050908060020154908060030154908060040160009054906101000a900473ffffffffffffffffffffffffffffffffffffffff16908060040160149054906101000a900460ff16905086565b6000819050919050565b6106c5816106b2565b82525050565b60006020820190506106e060008301846106bc565b92915050565b6000604051905090565b600080fd5b600080fd5b600080fd5b600080fd5b6000601f19601f8301169050919050565b7f4e487b7100000000000000000000000000000000000000000000000000000000600052604160045260246000fd5b61074d82610704565b810181811067ffffffffffffffff8211171561076c5761076b610715565b5b80604052505050565b600061077f6106e6565b905061078b8282610744565b919050565b600067ffffffffffffffff8211156107ab576107aa610715565b5b6107b482610704565b9050602081019050919050565b82818337600083830152505050565b60006107e36107de84610790565b610775565b9050828152602081018484840111156107ff576107fe6106ff565b5b61080a8482856107c1565b509392505050565b600082601f830112610827576108266106fa565b5b81356108378482602086016107d0565b91505092915050565b610849816106b2565b811461085457600080fd5b50565b60008135905061086681610840565b92915050565b600080600060608486031215610885576108846106f0565b5b600084013567ffffffffffffffff8111156108a3576108a26106f5565b5b6108af86828701610812565b93505060206108c086828701610857565b92505060406108d186828701610857565b9150509250925092565b6000602082840312156108f1576108f06106f0565b5b60006108ff84828501610857565b91505092915050565b600073ffffffffffffffffffffffffffffffffffffffff82169050919050565b600061093382610908565b9050919050565b61094381610928565b82525050565b600060208201905061095e600083018461093a565b92915050565b600081519050919050565b600082825260208201905092915050565b60005b8381101561099e578082015181840152602081019050610983565b60008484015250505050565b60006109b582610964565b6109bf818561096f565b93506109cf818560208601610980565b6109d881610704565b840191505092915050565b60008115159050919050565b6109f8816109e3565b82525050565b600060c082019050610a1360008301896106bc565b8181036020830152610a2581886109aa565b9050610a3460408301876106bc565b610a4160608301866106bc565b610a4e608083018561093a565b610a5b60a08301846109ef565b979650505050505050565b7f4f6e6c7920636f6e7472616374206f776e65722063616e20706572666f726d2060008201527f7468697320616374696f6e000000000000000000000000000000000000000000602082015250565b6000610ac2602b8361096f565b9150610acd82610a66565b604082019050919050565b60006020820190508181036000830152610af181610ab5565b9050919050565b7f4e487b7100000000000000000000000000000000000000000000000000000000600052601160045260246000fd5b6000610b32826106b2565b91507fffffffffffffffffffffffffffffffffffffffffffffffffffffffffffffffff8203610b6457610b63610af8565b5b600182019050919050565b7f4e487b7100000000000000000000000000000000000000000000000000000000600052602260045260246000fd5b60006002820490506001821680610bb657607f821691505b602082108103610bc957610bc8610b6f565b5b50919050565b60008190508160005260206000209050919050565b60006020601f8301049050919050565b600082821b905092915050565b600060088302610c317fffffffffffffffffffffffffffffffffffffffffffffffffffffffffffffffff82610bf4565b610c3b8683610bf4565b95508019841693508086168417925050509392505050565b6000819050919050565b6000610c78610c73610c6e846106b2565b610c53565b6106b2565b9050919050565b6000819050919050565b610c9283610c5d565b610ca6610c9e82610c7f565b848454610c01565b825550505050565b600090565b610cbb610cae565b610cc6818484610c89565b505050565b5b81811015610cea57610cdf600082610cb3565b600181019050610ccc565b5050565b601f821115610d2f57610d0081610bcf565b610d0984610be4565b81016020851015610d18578190505b610d2c610d2485610be4565b830182610ccb565b50505b505050565b600082821c905092915050565b6000610d5260001984600802610d34565b1980831691505092915050565b6000610d6b8383610d41565b9150826002028217905092915050565b610d8482610964565b67ffffffffffffffff811115610d9d57610d9c610715565b5b610da78254610b9e565b610db2828285610cee565b600060209050601f831160018114610de55760008415610dd3578287015190505b610ddd8582610d5f565b865550610e45565b601f198416610df386610bcf565b60005b82811015610e1b57848901518255600182019150602085019450602081019050610df6565b86831015610e385784890151610e34601f891682610d41565b8355505b6001600288020188555050505b505050505050565b600060a082019050610e6260008301886106bc565b8181036020830152610e7481876109aa565b9050610e8360408301866106bc565b610e9060608301856106bc565b610e9d608083018461093a565b9695505050505050565b7f496e76616c696420647275672049440000000000000000000000000000000000600082015250565b6000610edd600f8361096f565b9150610ee882610ea7565b602082019050919050565b60006020820190508181036000830152610f0c81610ed0565b9050919050565b7f4472756720697320616c726561647920736f6c64206f75740000000000000000600082015250565b6000610f4960188361096f565b9150610f5482610f13565b602082019050919050565b60006020820190508181036000830152610f7881610f3c565b9050919050565b7f496e73756666696369656e742066756e64730000000000000000000000000000600082015250565b6000610fb560128361096f565b9150610fc082610f7f565b602082019050919050565b60006020820190508181036000830152610fe481610fa8565b9050919050565b6000610ff6826106b2565b91506000820361100957611008610af8565b5b600182039050919050565b6000815461102181610b9e565b61102b818661096f565b94506001821660008114611046576001811461105c5761108f565b60ff19831686528115156020028601935061108f565b61106585610bcf565b60005b8381101561108757815481890152600182019150602081019050611068565b808801955050505b50505092915050565b6000819050919050565b60006110bd6110b86110b384611098565b610c53565b6106b2565b9050919050565b6110cd816110a2565b82525050565b600060a0820190506110e860008301886106bc565b81810360208301526110fa8187611014565b905061110960408301866110c4565b61111660608301856106bc565b611123608083018461093a565b969550505050505056fea2646970667358221220013647538506250b199e1a73193a9556051d7125aea7c45b9dc48d729e3aba0764736f6c63430008180033",
  "linkReferences": {},
  "deployedLinkReferences": {}
}