{
  "_format": "hh-sol-artifact-1",
  "contractName": "SupplyChain",
  "sourceName": "contracts/SupplyChain.sol",
  "abi": [
    {
      "inputs": [],
      "stateMutability": "nonpayable",
      "type": "constructor"
    },
    {
      "anonymous": false,
      "inputs": [
        {
          "indexed": false,
          "internalType": "uint256",
          "name": "discountCode",
          "type": "uint256"
        },
        {
          "indexed": false,
          "internalType": "uint256",
          "name": "drugID",
          "type": "uint256"
        },
        {
          "indexed": false,
          "internalType": "address",
          "name": "ins",
          "type": "address"
        }
      ],
      "name": "DiscountCodeAddedIN",
      "type": "event"
    },
    {
      "anonymous": false,
      "inputs": [
        {
          "indexed": false,
          "internalType": "uint256",
          "name": "id",
          "type": "uint256"
        },
        {
          "indexed": false,
          "internalType": "string",
          "name": "name",
          "type": "string"
        },
        {
          "indexed": false,
          "internalType": "uint256",
          "name": "quantity",
          "type": "uint256"
        },
        {
          "indexed": false,
          "internalType": "uint256",
          "name": "price",
          "type": "uint256"
        }
      ],
      "name": "DrugAdded",
      "type": "event"
    },
    {
      "anonymous": false,
      "inputs": [
        {
          "indexed": false,
          "internalType": "uint256",
          "name": "drugID",
          "type": "uint256"
        },
        {
          "indexed": false,
          "internalType": "uint256",
          "name": "quantity",
          "type": "uint256"
        },
        {
          "indexed": false,
          "internalType": "address",
          "name": "phAddr",
          "type": "address"
        }
      ],
      "name": "DrugAddedPH",
      "type": "event"
    },
    {
      "anonymous": false,
      "inputs": [
        {
          "indexed": false,
          "internalType": "uint256",
          "name": "drugID",
          "type": "uint256"
        },
        {
          "indexed": false,
          "internalType": "uint256",
          "name": "quantity",
          "type": "uint256"
        },
        {
          "indexed": false,
          "internalType": "address",
          "name": "wdAddr",
          "type": "address"
        }
      ],
      "name": "DrugAddedWD",
      "type": "event"
    },
    {
      "anonymous": false,
      "inputs": [
        {
          "indexed": true,
          "internalType": "address",
          "name": "account",
          "type": "address"
        }
      ],
      "name": "INAdded",
      "type": "event"
    },
    {
      "anonymous": false,
      "inputs": [
        {
          "indexed": true,
          "internalType": "address",
          "name": "account",
          "type": "address"
        }
      ],
      "name": "INRemoved",
      "type": "event"
    },
    {
      "anonymous": false,
      "inputs": [
        {
          "indexed": true,
          "internalType": "address",
          "name": "account",
          "type": "address"
        }
      ],
      "name": "MAAdded",
      "type": "event"
    },
    {
      "anonymous": false,
      "inputs": [
        {
          "indexed": true,
          "internalType": "address",
          "name": "account",
          "type": "address"
        }
      ],
      "name": "MARemoved",
      "type": "event"
    },
    {
      "anonymous": false,
      "inputs": [
        {
          "indexed": true,
          "internalType": "address",
          "name": "account",
          "type": "address"
        },
        {
          "indexed": false,
          "internalType": "uint256",
          "name": "accNum",
          "type": "uint256"
        }
      ],
      "name": "PHAdded",
      "type": "event"
    },
    {
      "anonymous": false,
      "inputs": [
        {
          "indexed": true,
          "internalType": "address",
          "name": "account",
          "type": "address"
        }
      ],
      "name": "PHRemoved",
      "type": "event"
    },
    {
      "anonymous": false,
      "inputs": [
        {
          "indexed": false,
          "internalType": "uint256",
          "name": "reqID",
          "type": "uint256"
        },
        {
          "indexed": false,
          "internalType": "address",
          "name": "phar",
          "type": "address"
        },
        {
          "indexed": false,
          "internalType": "address",
          "name": "wd",
          "type": "address"
        }
      ],
      "name": "ReqConfirmedByPH",
      "type": "event"
    },
    {
      "anonymous": false,
      "inputs": [
        {
          "indexed": false,
          "internalType": "uint256",
          "name": "drugID",
          "type": "uint256"
        },
        {
          "indexed": false,
          "internalType": "uint256",
          "name": "q",
          "type": "uint256"
        },
        {
          "indexed": false,
          "internalType": "uint256",
          "name": "totalPrice",
          "type": "uint256"
        },
        {
          "indexed": false,
          "internalType": "address",
          "name": "toWD",
          "type": "address"
        }
      ],
      "name": "SendRequestByPH",
      "type": "event"
    },
    {
      "anonymous": false,
      "inputs": [
        {
          "indexed": false,
          "internalType": "uint256",
          "name": "drugID",
          "type": "uint256"
        },
        {
          "indexed": false,
          "internalType": "uint256",
          "name": "quant",
          "type": "uint256"
        },
        {
          "indexed": false,
          "internalType": "uint256",
          "name": "PHaccNum",
          "type": "uint256"
        }
      ],
      "name": "ShipDrugByWD",
      "type": "event"
    },
    {
      "anonymous": false,
      "inputs": [
        {
          "indexed": true,
          "internalType": "address",
          "name": "account",
          "type": "address"
        },
        {
          "indexed": false,
          "internalType": "uint256",
          "name": "accNum",
          "type": "uint256"
        }
      ],
      "name": "WDAdded",
      "type": "event"
    },
    {
      "anonymous": false,
      "inputs": [
        {
          "indexed": true,
          "internalType": "address",
          "name": "account",
          "type": "address"
        }
      ],
      "name": "WDRemoved",
      "type": "event"
    },
    {
      "inputs": [
        {
          "internalType": "uint256",
          "name": "dcCode",
          "type": "uint256"
        },
        {
          "internalType": "uint256",
          "name": "discountprice",
          "type": "uint256"
        },
        {
          "internalType": "uint256",
          "name": "drugID",
          "type": "uint256"
        },
        {
          "internalType": "uint256",
          "name": "INaccNum",
          "type": "uint256"
        }
      ],
      "name": "addDiscountInIN",
      "outputs": [],
      "stateMutability": "nonpayable",
      "type": "function"
    },
    {
      "inputs": [
        {
          "internalType": "string",
          "name": "name",
          "type": "string"
        },
        {
          "internalType": "uint256",
          "name": "price",
          "type": "uint256"
        }
      ],
      "name": "addDrug",
      "outputs": [],
      "stateMutability": "nonpayable",
      "type": "function"
    },
    {
      "inputs": [
        {
          "internalType": "uint256",
          "name": "dID",
          "type": "uint256"
        },
        {
          "internalType": "uint256",
          "name": "quant",
          "type": "uint256"
        }
      ],
      "name": "addDrugInPH",
      "outputs": [],
      "stateMutability": "nonpayable",
      "type": "function"
    },
    {
      "inputs": [
        {
          "internalType": "uint256",
          "name": "dID",
          "type": "uint256"
        },
        {
          "internalType": "uint256",
          "name": "quant",
          "type": "uint256"
        }
      ],
      "name": "addDrugInWD",
      "outputs": [],
      "stateMutability": "nonpayable",
      "type": "function"
    },
    {
      "inputs": [],
      "name": "addPHaccounts",
      "outputs": [],
      "stateMutability": "nonpayable",
      "type": "function"
    },
    {
      "inputs": [
        {
          "internalType": "address",
          "name": "account",
          "type": "address"
        }
      ],
      "name": "addThisAsIN",
      "outputs": [],
      "stateMutability": "nonpayable",
      "type": "function"
    },
    {
      "inputs": [
        {
          "internalType": "address",
          "name": "account",
          "type": "address"
        }
      ],
      "name": "addThisAsMA",
      "outputs": [],
      "stateMutability": "nonpayable",
      "type": "function"
    },
    {
      "inputs": [
        {
          "internalType": "address",
          "name": "account",
          "type": "address"
        }
      ],
      "name": "addThisAsPH",
      "outputs": [],
      "stateMutability": "nonpayable",
      "type": "function"
    },
    {
      "inputs": [
        {
          "internalType": "address",
          "name": "account",
          "type": "address"
        }
      ],
      "name": "addThisAsWD",
      "outputs": [],
      "stateMutability": "nonpayable",
      "type": "function"
    },
    {
      "inputs": [
        {
          "internalType": "uint256",
          "name": "reqID",
          "type": "uint256"
        },
        {
          "internalType": "uint256",
          "name": "quant",
          "type": "uint256"
        },
        {
          "internalType": "uint256",
          "name": "WDaccNum",
          "type": "uint256"
        }
      ],
      "name": "confirmDrugShipment",
      "outputs": [],
      "stateMutability": "nonpayable",
      "type": "function"
    },
    {
      "inputs": [
        {
          "internalType": "uint256",
          "name": "dID",
          "type": "uint256"
        }
      ],
      "name": "findDrugInPH",
      "outputs": [
        {
          "internalType": "uint256",
          "name": "",
          "type": "uint256"
        }
      ],
      "stateMutability": "view",
      "type": "function"
    },
    {
      "inputs": [
        {
          "internalType": "uint256",
          "name": "dID",
          "type": "uint256"
        }
      ],
      "name": "findDrugInWD",
      "outputs": [
        {
          "internalType": "uint256",
          "name": "",
          "type": "uint256"
        }
      ],
      "stateMutability": "view",
      "type": "function"
    },
    {
      "inputs": [
        {
          "internalType": "uint256",
          "name": "reqID",
          "type": "uint256"
        }
      ],
      "name": "findRequestInPH",
      "outputs": [
        {
          "internalType": "uint256",
          "name": "",
          "type": "uint256"
        }
      ],
      "stateMutability": "view",
      "type": "function"
    },
    {
      "inputs": [
        {
          "internalType": "uint256",
          "name": "reqID",
          "type": "uint256"
        }
      ],
      "name": "findRequestInWD",
      "outputs": [
        {
          "internalType": "uint256",
          "name": "",
          "type": "uint256"
        }
      ],
      "stateMutability": "view",
      "type": "function"
    },
    {
      "inputs": [
        {
          "internalType": "uint256",
          "name": "accNumber",
          "type": "uint256"
        }
      ],
      "name": "getINaddr",
      "outputs": [
        {
          "internalType": "address",
          "name": "",
          "type": "address"
        }
      ],
      "stateMutability": "view",
      "type": "function"
    },
    {
      "inputs": [
        {
          "internalType": "uint256",
          "name": "accNumber",
          "type": "uint256"
        }
      ],
      "name": "getMAaddr",
      "outputs": [
        {
          "internalType": "address",
          "name": "",
          "type": "address"
        }
      ],
      "stateMutability": "view",
      "type": "function"
    },
    {
      "inputs": [
        {
          "internalType": "uint256",
          "name": "accNumber",
          "type": "uint256"
        }
      ],
      "name": "getPHaddr",
      "outputs": [
        {
          "internalType": "address",
          "name": "",
          "type": "address"
        }
      ],
      "stateMutability": "view",
      "type": "function"
    },
    {
      "inputs": [
        {
          "internalType": "uint256",
          "name": "accNumber",
          "type": "uint256"
        }
      ],
      "name": "getWDaddr",
      "outputs": [
        {
          "internalType": "address",
          "name": "",
          "type": "address"
        }
      ],
      "stateMutability": "view",
      "type": "function"
    },
    {
      "inputs": [
        {
          "internalType": "address",
          "name": "account",
          "type": "address"
        }
      ],
      "name": "isIN",
      "outputs": [
        {
          "internalType": "bool",
          "name": "",
          "type": "bool"
        }
      ],
      "stateMutability": "view",
      "type": "function"
    },
    {
      "inputs": [
        {
          "internalType": "address",
          "name": "account",
          "type": "address"
        }
      ],
      "name": "isMA",
      "outputs": [
        {
          "internalType": "bool",
          "name": "",
          "type": "bool"
        }
      ],
      "stateMutability": "view",
      "type": "function"
    },
    {
      "inputs": [
        {
          "internalType": "address",
          "name": "account",
          "type": "address"
        }
      ],
      "name": "isPH",
      "outputs": [
        {
          "internalType": "bool",
          "name": "",
          "type": "bool"
        }
      ],
      "stateMutability": "view",
      "type": "function"
    },
    {
      "inputs": [
        {
          "internalType": "address",
          "name": "account",
          "type": "address"
        }
      ],
      "name": "isWD",
      "outputs": [
        {
          "internalType": "bool",
          "name": "",
          "type": "bool"
        }
      ],
      "stateMutability": "view",
      "type": "function"
    },
    {
      "inputs": [],
      "name": "retrieveInventoryPH",
      "outputs": [],
      "stateMutability": "view",
      "type": "function"
    },
    {
      "inputs": [],
      "name": "retrieveInventoryPHFront",
      "outputs": [
        {
          "components": [
            {
              "internalType": "uint256",
              "name": "id",
              "type": "uint256"
            },
            {
              "internalType": "string",
              "name": "name",
              "type": "string"
            },
            {
              "internalType": "uint256",
              "name": "price",
              "type": "uint256"
            },
            {
              "internalType": "uint256",
              "name": "quantity",
              "type": "uint256"
            },
            {
              "internalType": "address",
              "name": "currentOwner",
              "type": "address"
            },
            {
              "internalType": "address",
              "name": "manufacturer",
              "type": "address"
            },
            {
              "internalType": "address",
              "name": "wholesale",
              "type": "address"
            },
            {
              "internalType": "address",
              "name": "pharmacy",
              "type": "address"
            },
            {
              "internalType": "bool",
              "name": "isSoldOut",
              "type": "bool"
            }
          ],
          "internalType": "struct SupplyChain.Drug[]",
          "name": "",
          "type": "tuple[]"
        }
      ],
      "stateMutability": "view",
      "type": "function"
    },
    {
      "inputs": [],
      "name": "retrieveInventoryWD",
      "outputs": [],
      "stateMutability": "view",
      "type": "function"
    },
    {
      "inputs": [
        {
          "internalType": "uint256",
          "name": "drugID",
          "type": "uint256"
        },
        {
          "internalType": "uint256",
          "name": "quant",
          "type": "uint256"
        },
        {
          "internalType": "uint256",
          "name": "WDaccNum",
          "type": "uint256"
        },
        {
          "internalType": "uint256",
          "name": "dcCode",
          "type": "uint256"
        }
      ],
      "name": "sendDrugRequestPH",
      "outputs": [],
      "stateMutability": "payable",
      "type": "function"
    },
    {
      "inputs": [
        {
          "internalType": "uint256",
          "name": "drugID",
          "type": "uint256"
        },
        {
          "internalType": "uint256",
          "name": "quant",
          "type": "uint256"
        },
        {
          "internalType": "uint256",
          "name": "MAaccNum",
          "type": "uint256"
        }
      ],
      "name": "sendDrugRequestWD",
      "outputs": [],
      "stateMutability": "payable",
      "type": "function"
    },
    {
      "inputs": [
        {
          "internalType": "uint256",
          "name": "drugID",
          "type": "uint256"
        },
        {
          "internalType": "uint256",
          "name": "quant",
          "type": "uint256"
        },
        {
          "internalType": "uint256",
          "name": "PHaccNum",
          "type": "uint256"
        }
      ],
      "name": "shipDrugWD",
      "outputs": [],
      "stateMutability": "nonpayable",
      "type": "function"
    }
  ],
  "bytecode": "0x608060405234801561001057600080fd5b506000600281905550600060038190555060006008819055506000600b8190555033600c60006101000a81548173ffffffffffffffffffffffffffffffffffffffff021916908373ffffffffffffffffffffffffffffffffffffffff160217905550600060158190555060006016819055506000601781905550614767806100996000396000f3fe6080604052600436106101b75760003560e01c8063674a53f9116100ec578063b959482a1161008a578063cacce19011610064578063cacce19014610648578063cfb8f16614610671578063f41da4201461069a578063faae3cc2146106c3576101b7565b8063b959482a146105c6578063bcb4d797146105ef578063bd80bcd81461062c576101b7565b806370525880116100c6578063705258801461050c57806372718467146105355780638056b4b414610560578063b2cc08f814610589576101b7565b8063674a53f914610469578063698adc83146104a65780636a8407fc146104cf576101b7565b8063340666521161015957806342dc56a21161013357806342dc56a21461039b578063432f20a6146103b257806345b77e9c146103ef5780635f3896891461042c576101b7565b8063340666521461030557806334b44b9b14610342578063405c14861461035e576101b7565b806325111bce1161019557806325111bce1461025f5780632903afae146102885780632d10b181146102b15780632e11b856146102c8576101b7565b80630555e387146101bc578063067ed257146101f95780632127efa014610236575b600080fd5b3480156101c857600080fd5b506101e360048036038101906101de919061376d565b6106da565b6040516101f091906137b5565b60405180910390f35b34801561020557600080fd5b50610220600480360381019061021b919061376d565b6106f7565b60405161022d91906137b5565b60405180910390f35b34801561024257600080fd5b5061025d60048036038101906102589190613806565b610714565b005b34801561026b57600080fd5b5061028660048036038101906102819190613859565b610833565b005b34801561029457600080fd5b506102af60048036038101906102aa919061376d565b610cbc565b005b3480156102bd57600080fd5b506102c6610cfb565b005b3480156102d457600080fd5b506102ef60048036038101906102ea919061376d565b61109e565b6040516102fc91906137b5565b60405180910390f35b34801561031157600080fd5b5061032c60048036038101906103279190613899565b6110bb565b60405161033991906138d5565b60405180910390f35b61035c600480360381019061035791906138f0565b6111e1565b005b34801561036a57600080fd5b5061038560048036038101906103809190613899565b6116cf565b60405161039291906138d5565b60405180910390f35b3480156103a757600080fd5b506103b06117f5565b005b3480156103be57600080fd5b506103d960048036038101906103d49190613899565b611b98565b6040516103e69190613966565b60405180910390f35b3480156103fb57600080fd5b5061041660048036038101906104119190613899565b611bb5565b60405161042391906138d5565b60405180910390f35b34801561043857600080fd5b50610453600480360381019061044e9190613899565b611cdb565b6040516104609190613966565b60405180910390f35b34801561047557600080fd5b50610490600480360381019061048b9190613899565b611cf8565b60405161049d9190613966565b60405180910390f35b3480156104b257600080fd5b506104cd60048036038101906104c8919061376d565b611d15565b005b3480156104db57600080fd5b506104f660048036038101906104f1919061376d565b611d54565b60405161050391906137b5565b60405180910390f35b34801561051857600080fd5b50610533600480360381019061052e9190613ac7565b611d71565b005b34801561054157600080fd5b5061054a611ff8565b6040516105579190613d56565b60405180910390f35b34801561056c57600080fd5b506105876004803603810190610582919061376d565b612300565b005b34801561059557600080fd5b506105b060048036038101906105ab9190613899565b612333565b6040516105bd9190613966565b60405180910390f35b3480156105d257600080fd5b506105ed60048036038101906105e8919061376d565b612350565b005b3480156105fb57600080fd5b5061061660048036038101906106119190613899565b61238f565b60405161062391906138d5565b60405180910390f35b61064660048036038101906106419190613806565b61246c565b005b34801561065457600080fd5b5061066f600480360381019061066a9190613859565b61292d565b005b34801561067d57600080fd5b5061069860048036038101906106939190613806565b612db6565b005b3480156106a657600080fd5b506106c160048036038101906106bc91906138f0565b6130e2565b005b3480156106cf57600080fd5b506106d861323b565b005b60006106f08260046132b190919063ffffffff16565b9050919050565b600061070d8260006132b190919063ffffffff16565b9050919050565b61071d336106f7565b61075c576040517f08c379a000000000000000000000000000000000000000000000000000000000815260040161075390613dd5565b60405180910390fd5b600061076784611bb5565b90506001600e60003373ffffffffffffffffffffffffffffffffffffffff1673ffffffffffffffffffffffffffffffffffffffff16815260200190815260200160002082815481106107bc576107bb613df5565b5b906000526020600020906006020160050160146101000a81548160ff02191690831515021790555060006107ef83612333565b90507fb76c4f40d064c72d18b0ddeaba1d885b054f208ac1984f07c3a2c3ddda8ba6a885338360405161082493929190613e24565b60405180910390a15050505050565b61083c336106f7565b61087b576040517f08c379a000000000000000000000000000000000000000000000000000000000815260040161087290613dd5565b60405180910390fd5b6000610886836116cf565b9050601260003373ffffffffffffffffffffffffffffffffffffffff1673ffffffffffffffffffffffffffffffffffffffff168152602001908152602001600020805490508103610c0257601260003373ffffffffffffffffffffffffffffffffffffffff1673ffffffffffffffffffffffffffffffffffffffff168152602001908152602001600020604051806101200160405280858152602001600d6000878152602001908152602001600020600101805461094390613e8a565b80601f016020809104026020016040519081016040528092919081815260200182805461096f90613e8a565b80156109bc5780601f10610991576101008083540402835291602001916109bc565b820191906000526020600020905b81548152906001019060200180831161099f57829003601f168201915b50505050508152602001600d60008781526020019081526020016000206002015481526020018481526020013373ffffffffffffffffffffffffffffffffffffffff168152602001600073ffffffffffffffffffffffffffffffffffffffff168152602001600073ffffffffffffffffffffffffffffffffffffffff1681526020013373ffffffffffffffffffffffffffffffffffffffff168152602001600015158152509080600181540180825580915050600190039060005260206000209060080201600090919091909150600082015181600001556020820151816001019081610aa99190614067565b50604082015181600201556060820151816003015560808201518160040160006101000a81548173ffffffffffffffffffffffffffffffffffffffff021916908373ffffffffffffffffffffffffffffffffffffffff16021790555060a08201518160050160006101000a81548173ffffffffffffffffffffffffffffffffffffffff021916908373ffffffffffffffffffffffffffffffffffffffff16021790555060c08201518160060160006101000a81548173ffffffffffffffffffffffffffffffffffffffff021916908373ffffffffffffffffffffffffffffffffffffffff16021790555060e08201518160070160006101000a81548173ffffffffffffffffffffffffffffffffffffffff021916908373ffffffffffffffffffffffffffffffffffffffff1602179055506101008201518160070160146101000a81548160ff0219169083151502179055505050610c7c565b81601260003373ffffffffffffffffffffffffffffffffffffffff1673ffffffffffffffffffffffffffffffffffffffff1681526020019081526020016000208281548110610c5457610c53613df5565b5b90600052602060002090600802016003016000828254610c749190614168565b925050819055505b7f01fd8585134bd20524c063b363e68b00637654b3b8f14c0d45f8bb068faf3b34838333604051610caf9392919061419c565b60405180910390a1505050565b610ce08160036005600354610cd191906141d3565b610cdb9190614168565b613342565b60036000815480929190610cf390614215565b919050555050565b610d043361109e565b610d43576040517f08c379a0000000000000000000000000000000000000000000000000000000008152600401610d3a906142a9565b60405180910390fd5b600080601360003373ffffffffffffffffffffffffffffffffffffffff1673ffffffffffffffffffffffffffffffffffffffff168152602001908152602001600020805480602002602001604051908101604052809291908181526020016000905b82821015610ffb57838290600052602060002090600802016040518061012001604052908160008201548152602001600182018054610de390613e8a565b80601f0160208091040260200160405190810160405280929190818152602001828054610e0f90613e8a565b8015610e5c5780601f10610e3157610100808354040283529160200191610e5c565b820191906000526020600020905b815481529060010190602001808311610e3f57829003601f168201915b5050505050815260200160028201548152602001600382015481526020016004820160009054906101000a900473ffffffffffffffffffffffffffffffffffffffff1673ffffffffffffffffffffffffffffffffffffffff1673ffffffffffffffffffffffffffffffffffffffff1681526020016005820160009054906101000a900473ffffffffffffffffffffffffffffffffffffffff1673ffffffffffffffffffffffffffffffffffffffff1673ffffffffffffffffffffffffffffffffffffffff1681526020016006820160009054906101000a900473ffffffffffffffffffffffffffffffffffffffff1673ffffffffffffffffffffffffffffffffffffffff1673ffffffffffffffffffffffffffffffffffffffff1681526020016007820160009054906101000a900473ffffffffffffffffffffffffffffffffffffffff1673ffffffffffffffffffffffffffffffffffffffff1673ffffffffffffffffffffffffffffffffffffffff1681526020016007820160149054906101000a900460ff16151515158152505081526020019060010190610da5565b5050505090505b805182101561109a5761108781838151811061102157611020613df5565b5b6020026020010151600001516040518060400160405280600a81526020017f3a207175616e74202d200000000000000000000000000000000000000000000081525083858151811061107657611075613df5565b5b60200260200101516060015161339f565b818061109290614215565b925050611002565b5050565b60006110b48260066132b190919063ffffffff16565b9050919050565b60006110c63361109e565b611105576040517f08c379a00000000000000000000000000000000000000000000000000000000081526004016110fc906142a9565b60405180910390fd5b6000601360003373ffffffffffffffffffffffffffffffffffffffff1673ffffffffffffffffffffffffffffffffffffffff168152602001908152602001600020805490509050600081905060005b828110156111d65784601360003373ffffffffffffffffffffffffffffffffffffffff1673ffffffffffffffffffffffffffffffffffffffff16815260200190815260200160002082815481106111ae576111ad613df5565b5b906000526020600020906008020160000154036111c9578091505b8080600101915050611154565b508092505050919050565b6111ea336106f7565b611229576040517f08c379a000000000000000000000000000000000000000000000000000000000815260040161122090613dd5565b60405180910390fd5b6000836011600084815260200190815260200160002060030154600d60008881526020019081526020016000206002015461126491906142c9565b61126e91906141d3565b9050600061127b84612333565b9050348211156112c0576040517f08c379a00000000000000000000000000000000000000000000000000000000081526004016112b790614349565b60405180910390fd5b60006103e8426112d09190614398565b8585888a6112de9190614168565b6112e89190614168565b6112f29190614168565b6112fc9190614168565b9050600e60003373ffffffffffffffffffffffffffffffffffffffff1673ffffffffffffffffffffffffffffffffffffffff1681526020019081526020016000206040518060e001604052808381526020018981526020018881526020018581526020013373ffffffffffffffffffffffffffffffffffffffff1681526020018473ffffffffffffffffffffffffffffffffffffffff1681526020016000151581525090806001815401808255809150506001900390600052602060002090600602016000909190919091506000820151816000015560208201518160010155604082015181600201556060820151816003015560808201518160040160006101000a81548173ffffffffffffffffffffffffffffffffffffffff021916908373ffffffffffffffffffffffffffffffffffffffff16021790555060a08201518160050160006101000a81548173ffffffffffffffffffffffffffffffffffffffff021916908373ffffffffffffffffffffffffffffffffffffffff16021790555060c08201518160050160146101000a81548160ff0219169083151502179055505050600f60008373ffffffffffffffffffffffffffffffffffffffff1673ffffffffffffffffffffffffffffffffffffffff1681526020019081526020016000206040518060e001604052808381526020018981526020018881526020018581526020013373ffffffffffffffffffffffffffffffffffffffff1681526020018473ffffffffffffffffffffffffffffffffffffffff1681526020016000151581525090806001815401808255809150506001900390600052602060002090600602016000909190919091506000820151816000015560208201518160010155604082015181600201556060820151816003015560808201518160040160006101000a81548173ffffffffffffffffffffffffffffffffffffffff021916908373ffffffffffffffffffffffffffffffffffffffff16021790555060a08201518160050160006101000a81548173ffffffffffffffffffffffffffffffffffffffff021916908373ffffffffffffffffffffffffffffffffffffffff16021790555060c08201518160050160146101000a81548160ff02191690831515021790555050508173ffffffffffffffffffffffffffffffffffffffff166108fc849081150290604051600060405180830381858888f19350505050158015611688573d6000803e3d6000fd5b507f64535bd33b640ec7d8a9dcfc8de975843151d9065abdcb0a65b8f4c81f2108c3878785856040516116be949392919061441e565b60405180910390a150505050505050565b60006116da336106f7565b611719576040517f08c379a000000000000000000000000000000000000000000000000000000000815260040161171090613dd5565b60405180910390fd5b6000601260003373ffffffffffffffffffffffffffffffffffffffff1673ffffffffffffffffffffffffffffffffffffffff168152602001908152602001600020805490509050600081905060005b828110156117ea5784601260003373ffffffffffffffffffffffffffffffffffffffff1673ffffffffffffffffffffffffffffffffffffffff16815260200190815260200160002082815481106117c2576117c1613df5565b5b906000526020600020906008020160000154036117dd578091505b8080600101915050611768565b508092505050919050565b6117fe336106f7565b61183d576040517f08c379a000000000000000000000000000000000000000000000000000000000815260040161183490613dd5565b60405180910390fd5b600080601260003373ffffffffffffffffffffffffffffffffffffffff1673ffffffffffffffffffffffffffffffffffffffff168152602001908152602001600020805480602002602001604051908101604052809291908181526020016000905b82821015611af5578382906000526020600020906008020160405180610120016040529081600082015481526020016001820180546118dd90613e8a565b80601f016020809104026020016040519081016040528092919081815260200182805461190990613e8a565b80156119565780601f1061192b57610100808354040283529160200191611956565b820191906000526020600020905b81548152906001019060200180831161193957829003601f168201915b5050505050815260200160028201548152602001600382015481526020016004820160009054906101000a900473ffffffffffffffffffffffffffffffffffffffff1673ffffffffffffffffffffffffffffffffffffffff1673ffffffffffffffffffffffffffffffffffffffff1681526020016005820160009054906101000a900473ffffffffffffffffffffffffffffffffffffffff1673ffffffffffffffffffffffffffffffffffffffff1673ffffffffffffffffffffffffffffffffffffffff1681526020016006820160009054906101000a900473ffffffffffffffffffffffffffffffffffffffff1673ffffffffffffffffffffffffffffffffffffffff1673ffffffffffffffffffffffffffffffffffffffff1681526020016007820160009054906101000a900473ffffffffffffffffffffffffffffffffffffffff1673ffffffffffffffffffffffffffffffffffffffff1673ffffffffffffffffffffffffffffffffffffffff1681526020016007820160149054906101000a900460ff1615151515815250508152602001906001019061189f565b5050505090505b8051821015611b9457611b81818381518110611b1b57611b1a613df5565b5b6020026020010151600001516040518060400160405280600a81526020017f3a207175616e74202d2000000000000000000000000000000000000000000000815250838581518110611b7057611b6f613df5565b5b60200260200101516060015161339f565b8180611b8c90614215565b925050611afc565b5050565b6000611bae82600061343e90919063ffffffff16565b9050919050565b6000611bc0336106f7565b611bff576040517f08c379a0000000000000000000000000000000000000000000000000000000008152600401611bf690613dd5565b60405180910390fd5b6000600e60003373ffffffffffffffffffffffffffffffffffffffff1673ffffffffffffffffffffffffffffffffffffffff168152602001908152602001600020805490509050600081905060005b82811015611cd05784600e60003373ffffffffffffffffffffffffffffffffffffffff1673ffffffffffffffffffffffffffffffffffffffff1681526020019081526020016000208281548110611ca857611ca7613df5565b5b90600052602060002090600602016000015403611cc3578091505b8080600101915050611c4e565b508092505050919050565b6000611cf182600461343e90919063ffffffff16565b9050919050565b6000611d0e82600961343e90919063ffffffff16565b9050919050565b611d398160026005600b54611d2a91906141d3565b611d349190614168565b61347e565b600b6000815480929190611d4c90614215565b919050555050565b6000611d6a8260096132b190919063ffffffff16565b9050919050565b6000601554905060405180610120016040528082815260200184815260200183815260200160008152602001600073ffffffffffffffffffffffffffffffffffffffff168152602001600073ffffffffffffffffffffffffffffffffffffffff168152602001600073ffffffffffffffffffffffffffffffffffffffff168152602001600073ffffffffffffffffffffffffffffffffffffffff16815260200160001515815250600d600060156000815480929190611e2f90614215565b919050558152602001908152602001600020600082015181600001556020820151816001019081611e609190614067565b50604082015181600201556060820151816003015560808201518160040160006101000a81548173ffffffffffffffffffffffffffffffffffffffff021916908373ffffffffffffffffffffffffffffffffffffffff16021790555060a08201518160050160006101000a81548173ffffffffffffffffffffffffffffffffffffffff021916908373ffffffffffffffffffffffffffffffffffffffff16021790555060c08201518160060160006101000a81548173ffffffffffffffffffffffffffffffffffffffff021916908373ffffffffffffffffffffffffffffffffffffffff16021790555060e08201518160070160006101000a81548173ffffffffffffffffffffffffffffffffffffffff021916908373ffffffffffffffffffffffffffffffffffffffff1602179055506101008201518160070160146101000a81548160ff0219169083151502179055509050507f5b5755b262b850b85821421089fb7b9f0989af8fbdbb918ac09d7dd30087d2128184600085604051611feb94939291906144d7565b60405180910390a1505050565b6060612003336106f7565b612042576040517f08c379a000000000000000000000000000000000000000000000000000000000815260040161203990613dd5565b60405180910390fd5b601260003373ffffffffffffffffffffffffffffffffffffffff1673ffffffffffffffffffffffffffffffffffffffff168152602001908152602001600020805480602002602001604051908101604052809291908181526020016000905b828210156122f7578382906000526020600020906008020160405180610120016040529081600082015481526020016001820180546120df90613e8a565b80601f016020809104026020016040519081016040528092919081815260200182805461210b90613e8a565b80156121585780601f1061212d57610100808354040283529160200191612158565b820191906000526020600020905b81548152906001019060200180831161213b57829003601f168201915b5050505050815260200160028201548152602001600382015481526020016004820160009054906101000a900473ffffffffffffffffffffffffffffffffffffffff1673ffffffffffffffffffffffffffffffffffffffff1673ffffffffffffffffffffffffffffffffffffffff1681526020016005820160009054906101000a900473ffffffffffffffffffffffffffffffffffffffff1673ffffffffffffffffffffffffffffffffffffffff1673ffffffffffffffffffffffffffffffffffffffff1681526020016006820160009054906101000a900473ffffffffffffffffffffffffffffffffffffffff1673ffffffffffffffffffffffffffffffffffffffff1673ffffffffffffffffffffffffffffffffffffffff1681526020016007820160009054906101000a900473ffffffffffffffffffffffffffffffffffffffff1673ffffffffffffffffffffffffffffffffffffffff1673ffffffffffffffffffffffffffffffffffffffff1681526020016007820160149054906101000a900460ff161515151581525050815260200190600101906120a1565b50505050905090565b61231881600560025461231391906141d3565b6134db565b6002600081548092919061232b90614215565b919050555050565b600061234982600661343e90919063ffffffff16565b9050919050565b612374816001600560085461236591906141d3565b61236f9190614168565b613543565b6008600081548092919061238790614215565b919050555050565b600080600f60003373ffffffffffffffffffffffffffffffffffffffff1673ffffffffffffffffffffffffffffffffffffffff168152602001908152602001600020805490509050600081905060005b828110156124615784600f60003373ffffffffffffffffffffffffffffffffffffffff1673ffffffffffffffffffffffffffffffffffffffff168152602001908152602001600020828154811061243957612438613df5565b5b90600052602060002090600602016000015403612454578091505b80806001019150506123df565b508092505050919050565b6124753361109e565b6124b4576040517f08c379a00000000000000000000000000000000000000000000000000000000081526004016124ab906142a9565b60405180910390fd5b600082600d6000868152602001908152602001600020600201546124d891906141d3565b905060006124e583611cdb565b90503482111561252a576040517f08c379a000000000000000000000000000000000000000000000000000000000815260040161252190614349565b60405180910390fd5b60006103e84261253a9190614398565b8486886125479190614168565b6125519190614168565b61255b9190614168565b9050600e60003373ffffffffffffffffffffffffffffffffffffffff1673ffffffffffffffffffffffffffffffffffffffff1681526020019081526020016000206040518060e001604052808381526020018881526020018781526020018581526020013373ffffffffffffffffffffffffffffffffffffffff1681526020018473ffffffffffffffffffffffffffffffffffffffff1681526020016000151581525090806001815401808255809150506001900390600052602060002090600602016000909190919091506000820151816000015560208201518160010155604082015181600201556060820151816003015560808201518160040160006101000a81548173ffffffffffffffffffffffffffffffffffffffff021916908373ffffffffffffffffffffffffffffffffffffffff16021790555060a08201518160050160006101000a81548173ffffffffffffffffffffffffffffffffffffffff021916908373ffffffffffffffffffffffffffffffffffffffff16021790555060c08201518160050160146101000a81548160ff0219169083151502179055505050601060008373ffffffffffffffffffffffffffffffffffffffff1673ffffffffffffffffffffffffffffffffffffffff1681526020019081526020016000206040518060e001604052808381526020018881526020018781526020018581526020013373ffffffffffffffffffffffffffffffffffffffff1681526020018473ffffffffffffffffffffffffffffffffffffffff1681526020016000151581525090806001815401808255809150506001900390600052602060002090600602016000909190919091506000820151816000015560208201518160010155604082015181600201556060820151816003015560808201518160040160006101000a81548173ffffffffffffffffffffffffffffffffffffffff021916908373ffffffffffffffffffffffffffffffffffffffff16021790555060a08201518160050160006101000a81548173ffffffffffffffffffffffffffffffffffffffff021916908373ffffffffffffffffffffffffffffffffffffffff16021790555060c08201518160050160146101000a81548160ff02191690831515021790555050508173ffffffffffffffffffffffffffffffffffffffff166108fc849081150290604051600060405180830381858888f193505050501580156128e7573d6000803e3d6000fd5b507f64535bd33b640ec7d8a9dcfc8de975843151d9065abdcb0a65b8f4c81f2108c38686858560405161291d949392919061441e565b60405180910390a1505050505050565b6129363361109e565b612975576040517f08c379a000000000000000000000000000000000000000000000000000000000815260040161296c906142a9565b60405180910390fd5b6000612980836110bb565b9050601360003373ffffffffffffffffffffffffffffffffffffffff1673ffffffffffffffffffffffffffffffffffffffff168152602001908152602001600020805490508103612cfc57601360003373ffffffffffffffffffffffffffffffffffffffff1673ffffffffffffffffffffffffffffffffffffffff168152602001908152602001600020604051806101200160405280858152602001600d60008781526020019081526020016000206001018054612a3d90613e8a565b80601f0160208091040260200160405190810160405280929190818152602001828054612a6990613e8a565b8015612ab65780601f10612a8b57610100808354040283529160200191612ab6565b820191906000526020600020905b815481529060010190602001808311612a9957829003601f168201915b50505050508152602001600d60008781526020019081526020016000206002015481526020018481526020013373ffffffffffffffffffffffffffffffffffffffff168152602001600073ffffffffffffffffffffffffffffffffffffffff168152602001600073ffffffffffffffffffffffffffffffffffffffff1681526020013373ffffffffffffffffffffffffffffffffffffffff168152602001600015158152509080600181540180825580915050600190039060005260206000209060080201600090919091909150600082015181600001556020820151816001019081612ba39190614067565b50604082015181600201556060820151816003015560808201518160040160006101000a81548173ffffffffffffffffffffffffffffffffffffffff021916908373ffffffffffffffffffffffffffffffffffffffff16021790555060a08201518160050160006101000a81548173ffffffffffffffffffffffffffffffffffffffff021916908373ffffffffffffffffffffffffffffffffffffffff16021790555060c08201518160060160006101000a81548173ffffffffffffffffffffffffffffffffffffffff021916908373ffffffffffffffffffffffffffffffffffffffff16021790555060e08201518160070160006101000a81548173ffffffffffffffffffffffffffffffffffffffff021916908373ffffffffffffffffffffffffffffffffffffffff1602179055506101008201518160070160146101000a81548160ff0219169083151502179055505050612d76565b81601360003373ffffffffffffffffffffffffffffffffffffffff1673ffffffffffffffffffffffffffffffffffffffff1681526020019081526020016000208281548110612d4e57612d4d613df5565b5b90600052602060002090600802016003016000828254612d6e9190614168565b925050819055505b7faa0ccf70c1ed5f098a1e53c6f9e75b32cb44b86100ea455244060e153b36f051838333604051612da99392919061419c565b60405180910390a1505050565b612dbf3361109e565b612dfe576040517f08c379a0000000000000000000000000000000000000000000000000000000008152600401612df5906142a9565b60405180910390fd5b6000612e0982611b98565b90506000612e16856110bb565b9050601360003373ffffffffffffffffffffffffffffffffffffffff1673ffffffffffffffffffffffffffffffffffffffff168152602001908152602001600020805490508103612e9c576040517f08c379a0000000000000000000000000000000000000000000000000000000008152600401612e939061456f565b60405180910390fd5b83601360003373ffffffffffffffffffffffffffffffffffffffff1673ffffffffffffffffffffffffffffffffffffffff1681526020019081526020016000208281548110612eee57612eed613df5565b5b9060005260206000209060080201600301541015612f41576040517f08c379a0000000000000000000000000000000000000000000000000000000008152600401612f3890614601565b60405180910390fd5b83601360003373ffffffffffffffffffffffffffffffffffffffff1673ffffffffffffffffffffffffffffffffffffffff1681526020019081526020016000208281548110612f9357612f92613df5565b5b90600052602060002090600802016003016000828254612fb391906142c9565b925050819055506000601360003373ffffffffffffffffffffffffffffffffffffffff1673ffffffffffffffffffffffffffffffffffffffff168152602001908152602001600020828154811061300d5761300c613df5565b5b906000526020600020906008020160030154036130a0576001601360003373ffffffffffffffffffffffffffffffffffffffff1673ffffffffffffffffffffffffffffffffffffffff168152602001908152602001600020868154811061307757613076613df5565b5b906000526020600020906008020160070160146101000a81548160ff0219169083151502179055505b7f82317ff27a004ab91258681d816359383c4c8c836c1086730b653b11f9d584b18585856040516130d393929190614621565b60405180910390a15050505050565b6130eb33611d54565b61312a576040517f08c379a0000000000000000000000000000000000000000000000000000000008152600401613121906146a4565b60405180910390fd5b600061313582611cf8565b90506040518060a001604052808681526020018273ffffffffffffffffffffffffffffffffffffffff16815260200184815260200185815260200142815250601160008781526020019081526020016000206000820151816000015560208201518160010160006101000a81548173ffffffffffffffffffffffffffffffffffffffff021916908373ffffffffffffffffffffffffffffffffffffffff1602179055506040820151816002015560608201518160030155608082015181600401559050507ff46e3888ab01efac692e1fd05a80154671dd88da2bd40bd258466857b2c8c3d485843360405161322c9392919061419c565b60405180910390a15050505050565b61325873f39fd6e51aad88f6f4ce6ab8827279cfffb92266612300565b6132757370997970c51812dc3a010c7d01b50e0d17dc79c8612350565b613292733c44cdddb6a900fa2b585dd299e03d12fa4293bc611d15565b6132af7390f79bf6eb2c4f870365e785982e1f101e93b906610cbc565b565b60008073ffffffffffffffffffffffffffffffffffffffff168273ffffffffffffffffffffffffffffffffffffffff16036132eb57600080fd5b8260010160008373ffffffffffffffffffffffffffffffffffffffff1673ffffffffffffffffffffffffffffffffffffffff16815260200190815260200160002060009054906101000a900460ff16905092915050565b613358828260046135ab9092919063ffffffff16565b8173ffffffffffffffffffffffffffffffffffffffff167f1b75342144357c1041167b44af1fb2fb1922a55e78798a1d0bffae81ae56952260405160405180910390a25050565b6134398383836040516024016133b7939291906146c4565b6040516020818303038152906040527f37aa7d4c000000000000000000000000000000000000000000000000000000007bffffffffffffffffffffffffffffffffffffffffffffffffffffffff19166020820180517bffffffffffffffffffffffffffffffffffffffffffffffffffffffff83818316178352505050506136ab565b505050565b600082600001600083815260200190815260200160002060009054906101000a900473ffffffffffffffffffffffffffffffffffffffff16905092915050565b613494828260096135ab9092919063ffffffff16565b8173ffffffffffffffffffffffffffffffffffffffff167fd9ca880bfd1de8a3f1e9b43db37e2f153997e67347efe3c29ee2938ecf53568160405160405180910390a25050565b6134f1828260006135ab9092919063ffffffff16565b8173ffffffffffffffffffffffffffffffffffffffff167f208939ccf3c0b1e4d56ede20000b38c0154e92a4137f57f8f75c6568488c4a3a8260405161353791906138d5565b60405180910390a25050565b613559828260066135ab9092919063ffffffff16565b8173ffffffffffffffffffffffffffffffffffffffff167fa979e61f070c3dcad6f4ad6e371f80e4647f338cf5e8bb3c517ec5cd52d90e828260405161359f91906138d5565b60405180910390a25050565b600073ffffffffffffffffffffffffffffffffffffffff168273ffffffffffffffffffffffffffffffffffffffff16036135e457600080fd5b6135ee83836132b1565b156135f857600080fd5b8183600001600083815260200190815260200160002060006101000a81548173ffffffffffffffffffffffffffffffffffffffff021916908373ffffffffffffffffffffffffffffffffffffffff16021790555060018360010160008473ffffffffffffffffffffffffffffffffffffffff1673ffffffffffffffffffffffffffffffffffffffff16815260200190815260200160002060006101000a81548160ff021916908315150217905550505050565b6136c2816136ba6136c56136e6565b63ffffffff16565b50565b60006a636f6e736f6c652e6c6f679050600080835160208501845afa505050565b6136f1819050919050565b6136f9614702565b565b6000604051905090565b600080fd5b600080fd5b600073ffffffffffffffffffffffffffffffffffffffff82169050919050565b600061373a8261370f565b9050919050565b61374a8161372f565b811461375557600080fd5b50565b60008135905061376781613741565b92915050565b60006020828403121561378357613782613705565b5b600061379184828501613758565b91505092915050565b60008115159050919050565b6137af8161379a565b82525050565b60006020820190506137ca60008301846137a6565b92915050565b6000819050919050565b6137e3816137d0565b81146137ee57600080fd5b50565b600081359050613800816137da565b92915050565b60008060006060848603121561381f5761381e613705565b5b600061382d868287016137f1565b935050602061383e868287016137f1565b925050604061384f868287016137f1565b9150509250925092565b600080604083850312156138705761386f613705565b5b600061387e858286016137f1565b925050602061388f858286016137f1565b9150509250929050565b6000602082840312156138af576138ae613705565b5b60006138bd848285016137f1565b91505092915050565b6138cf816137d0565b82525050565b60006020820190506138ea60008301846138c6565b92915050565b6000806000806080858703121561390a57613909613705565b5b6000613918878288016137f1565b9450506020613929878288016137f1565b935050604061393a878288016137f1565b925050606061394b878288016137f1565b91505092959194509250565b6139608161372f565b82525050565b600060208201905061397b6000830184613957565b92915050565b600080fd5b600080fd5b6000601f19601f8301169050919050565b7f4e487b7100000000000000000000000000000000000000000000000000000000600052604160045260246000fd5b6139d48261398b565b810181811067ffffffffffffffff821117156139f3576139f261399c565b5b80604052505050565b6000613a066136fb565b9050613a1282826139cb565b919050565b600067ffffffffffffffff821115613a3257613a3161399c565b5b613a3b8261398b565b9050602081019050919050565b82818337600083830152505050565b6000613a6a613a6584613a17565b6139fc565b905082815260208101848484011115613a8657613a85613986565b5b613a91848285613a48565b509392505050565b600082601f830112613aae57613aad613981565b5b8135613abe848260208601613a57565b91505092915050565b60008060408385031215613ade57613add613705565b5b600083013567ffffffffffffffff811115613afc57613afb61370a565b5b613b0885828601613a99565b9250506020613b19858286016137f1565b9150509250929050565b600081519050919050565b600082825260208201905092915050565b6000819050602082019050919050565b613b58816137d0565b82525050565b600081519050919050565b600082825260208201905092915050565b60005b83811015613b98578082015181840152602081019050613b7d565b60008484015250505050565b6000613baf82613b5e565b613bb98185613b69565b9350613bc9818560208601613b7a565b613bd28161398b565b840191505092915050565b613be68161372f565b82525050565b613bf58161379a565b82525050565b600061012083016000830151613c146000860182613b4f565b5060208301518482036020860152613c2c8282613ba4565b9150506040830151613c416040860182613b4f565b506060830151613c546060860182613b4f565b506080830151613c676080860182613bdd565b5060a0830151613c7a60a0860182613bdd565b5060c0830151613c8d60c0860182613bdd565b5060e0830151613ca060e0860182613bdd565b50610100830151613cb5610100860182613bec565b508091505092915050565b6000613ccc8383613bfb565b905092915050565b6000602082019050919050565b6000613cec82613b23565b613cf68185613b2e565b935083602082028501613d0885613b3f565b8060005b85811015613d445784840389528151613d258582613cc0565b9450613d3083613cd4565b925060208a01995050600181019050613d0c565b50829750879550505050505092915050565b60006020820190508181036000830152613d708184613ce1565b905092915050565b600082825260208201905092915050565b7f4e6f74206120506861726d616379210000000000000000000000000000000000600082015250565b6000613dbf600f83613d78565b9150613dca82613d89565b602082019050919050565b60006020820190508181036000830152613dee81613db2565b9050919050565b7f4e487b7100000000000000000000000000000000000000000000000000000000600052603260045260246000fd5b6000606082019050613e3960008301866138c6565b613e466020830185613957565b613e536040830184613957565b949350505050565b7f4e487b7100000000000000000000000000000000000000000000000000000000600052602260045260246000fd5b60006002820490506001821680613ea257607f821691505b602082108103613eb557613eb4613e5b565b5b50919050565b60008190508160005260206000209050919050565b60006020601f8301049050919050565b600082821b905092915050565b600060088302613f1d7fffffffffffffffffffffffffffffffffffffffffffffffffffffffffffffffff82613ee0565b613f278683613ee0565b95508019841693508086168417925050509392505050565b6000819050919050565b6000613f64613f5f613f5a846137d0565b613f3f565b6137d0565b9050919050565b6000819050919050565b613f7e83613f49565b613f92613f8a82613f6b565b848454613eed565b825550505050565b600090565b613fa7613f9a565b613fb2818484613f75565b505050565b5b81811015613fd657613fcb600082613f9f565b600181019050613fb8565b5050565b601f82111561401b57613fec81613ebb565b613ff584613ed0565b81016020851015614004578190505b61401861401085613ed0565b830182613fb7565b50505b505050565b600082821c905092915050565b600061403e60001984600802614020565b1980831691505092915050565b6000614057838361402d565b9150826002028217905092915050565b61407082613b5e565b67ffffffffffffffff8111156140895761408861399c565b5b6140938254613e8a565b61409e828285613fda565b600060209050601f8311600181146140d157600084156140bf578287015190505b6140c9858261404b565b865550614131565b601f1984166140df86613ebb565b60005b82811015614107578489015182556001820191506020850194506020810190506140e2565b868310156141245784890151614120601f89168261402d565b8355505b6001600288020188555050505b505050505050565b7f4e487b7100000000000000000000000000000000000000000000000000000000600052601160045260246000fd5b6000614173826137d0565b915061417e836137d0565b925082820190508082111561419657614195614139565b5b92915050565b60006060820190506141b160008301866138c6565b6141be60208301856138c6565b6141cb6040830184613957565b949350505050565b60006141de826137d0565b91506141e9836137d0565b92508282026141f7816137d0565b9150828204841483151761420e5761420d614139565b5b5092915050565b6000614220826137d0565b91507fffffffffffffffffffffffffffffffffffffffffffffffffffffffffffffffff820361425257614251614139565b5b600182019050919050565b7f4e6f7420612057686f6c6573616c65204469737472696275746f722100000000600082015250565b6000614293601c83613d78565b915061429e8261425d565b602082019050919050565b600060208201905081810360008301526142c281614286565b9050919050565b60006142d4826137d0565b91506142df836137d0565b92508282039050818111156142f7576142f6614139565b5b92915050565b7f496e73756666696369656e742066756e642e0000000000000000000000000000600082015250565b6000614333601283613d78565b915061433e826142fd565b602082019050919050565b6000602082019050818103600083015261436281614326565b9050919050565b7f4e487b7100000000000000000000000000000000000000000000000000000000600052601260045260246000fd5b60006143a3826137d0565b91506143ae836137d0565b9250826143be576143bd614369565b5b828206905092915050565b60006143e46143df6143da8461370f565b613f3f565b61370f565b9050919050565b60006143f6826143c9565b9050919050565b6000614408826143eb565b9050919050565b614418816143fd565b82525050565b600060808201905061443360008301876138c6565b61444060208301866138c6565b61444d60408301856138c6565b61445a606083018461440f565b95945050505050565b600061446e82613b5e565b6144788185613d78565b9350614488818560208601613b7a565b6144918161398b565b840191505092915050565b6000819050919050565b60006144c16144bc6144b78461449c565b613f3f565b6137d0565b9050919050565b6144d1816144a6565b82525050565b60006080820190506144ec60008301876138c6565b81810360208301526144fe8186614463565b905061450d60408301856144c8565b61451a60608301846138c6565b95945050505050565b7f54686572652773206e6f20647275672077697468207468652064727567206964600082015250565b6000614559602083613d78565b915061456482614523565b602082019050919050565b600060208201905081810360008301526145888161454c565b9050919050565b7f4e6f7420656e6f7567682064727567207175616e7469747920696e207468652060008201527f696e76656e746f72792e00000000000000000000000000000000000000000000602082015250565b60006145eb602a83613d78565b91506145f68261458f565b604082019050919050565b6000602082019050818103600083015261461a816145de565b9050919050565b600060608201905061463660008301866138c6565b61464360208301856138c6565b61465060408301846138c6565b949350505050565b7f4e6f7420616e20496e7375726572210000000000000000000000000000000000600082015250565b600061468e600f83613d78565b915061469982614658565b602082019050919050565b600060208201905081810360008301526146bd81614681565b9050919050565b60006060820190506146d960008301866138c6565b81810360208301526146eb8185614463565b90506146fa60408301846138c6565b949350505050565b7f4e487b7100000000000000000000000000000000000000000000000000000000600052605160045260246000fdfea264697066735822122012e075f7ab21902e11a5f7398048b2e984ee2bc97f8a285c6b073d78021d75e664736f6c63430008180033",
  "linkReferences": {},
  "deployedLinkReferences": {}
}